:020000040000FA
:100000000C9461000C9473000C9473000C947300B6
:100010000C9473000C9473000C9473000C94730094
:100020000C9473000C9473000C9473000C94730084
:100030000C9473000C9473000C9473000C94730074
:100040000C9432010C9473000C9473000C947300A4
:100050000C9473000C9473000C9473000C94730054
:100060000C9473000C94730000000000240027001F
:100070002A0000000000250028002B0000000000DE
:1000800023002600290004040404040404040202DA
:100090000202020203030303030301020408102007
:1000A0004080010204081020010204081020000012
:1000B0000008000201000003040700000000000027
:1000C000000011241FBECFEFD8E0DEBFCDBF21E07E
:1000D000A0E0B1E001C01D92AF30B207E1F70E948D
:1000E0007C010C94AD020C940000833081F028F464
:1000F000813099F08230A9F008958730A9F08830D6
:10010000C9F08430B1F4809180008F7D03C080916C
:1001100080008F7780938000089584B58F7784BDA9
:10012000089584B58F7DFBCF8091B0008F77809349
:10013000B00008958091B0008F7DF9CFCF93DF9309
:10014000282F30E0F901E255FF4F8491F901E6567E
:10015000FF4FD491F901EA57FF4FC491CC23A1F08E
:1001600081110E947500EC2FF0E0EE0FFF1FE458A4
:10017000FF4FA591B491EC91ED2381E090E009F45B
:1001800080E0DF91CF91089580E090E0FACF1F9357
:10019000CF93DF93282F30E0F901E255FF4F849190
:1001A000F901E656FF4FD491F901EA57FF4FC49188
:1001B000CC23A9F0162F81110E947500EC2FF0E0DE
:1001C000EE0FFF1FEE58FF4FA591B4918FB7F89433
:1001D000EC91111108C0D095DE23DC938FBFDF9125
:1001E000CF911F910895DE2BF8CFCF93DF9390E04E
:1001F000FC01E656FF4F24918A579F4FFC018491E2
:100200008823D1F090E0880F991FFC01E859FF4F37
:10021000A591B491FC01EE58FF4FC591D491623085
:1002200071F49FB7F8943C91822F809583238C932F
:10023000E8812E2B28839FBFDF91CF9108958FB740
:10024000F894EC912E2B2C938FBFF6CF60E088E0D2
:100250000E94C70060E08AE00E94C70060E089E079
:100260000C94C7001F920F920FB60F9211242F9378
:100270003F938F939F93AF93BF938091050190918C
:100280000601A0910701B09108013091040123E01B
:10029000230F2D3758F50196A11DB11D20930401A0
:1002A0008093050190930601A0930701B093080184
:1002B0008091000190910101A0910201B091030190
:1002C0000196A11DB11D8093000190930101A0939F
:1002D0000201B0930301BF91AF919F918F913F9124
:1002E0002F910F900FBE0F901F90189526E8230FA7
:1002F0000296A11DB11DD2CF789484B5826084BDD1
:1003000084B5816084BD85B5826085BD85B5816019
:1003100085BD80916E00816080936E001092810097
:100320008091810082608093810080918100816052
:100330008093810080918000816080938000809113
:10034000B10084608093B1008091B000816080939F
:10035000B00080917A00846080937A0080917A0066
:10036000826080937A0080917A00816080937A0025
:1003700080917A00806880937A001092C10062E0D8
:1003800082E00E94F50062E083E00E94F50062E0F6
:1003900084E00E94F50061E088E00E94F50061E0E1
:1003A0008AE00E94F50061E089E00E94F5000E9469
:1003B000260180E0482E80E0582E94E0692E712CB2
:1003C00002E010E0EE24E394F12C33E0C32ED12CB4
:1003D00082E00E949E005C0183E00E949E00EC018E
:1003E00084E00E949E004C01892B31F470920E0132
:1003F00060920D010E94260180910D0190910E01E5
:100400008130910509F442C0B8F08230910509F4B9
:1004100076C0049709F499C0CD2B41F480910D0169
:1004200090910E01049711F00E942601411451048D
:1004300079F20E940000CCCFAB2829F5892819F168
:1004400061E088E00E94C70061E089E00E94C70087
:1004500060E08AE00E94C7002FB7F8948091050100
:1004600090910601A0910701B09108012FBF8093E0
:10047000090190930A01A0930B01B0930C01F09233
:100480000E01E0920D01CD2B79F2D0CF2FB7F89469
:100490008091050190910601A0910701B09108019A
:1004A0002FBF4091090150910A0160910B01709199
:1004B0000C01841B950BA60BB70B88389341A10543
:1004C000B10508F4A9CF60E089E00E94C7002FB70A
:1004D000F8948091050190910601A0910701B091D7
:1004E00008012FBF8093090190930A01A0930B018B
:1004F000B0930C0110930E0100930D01C4CF2FB7E0
:10050000F8948091050190910601A0910701B091A6
:1005100008012FBF4091090150910A0160910B0120
:1005200070910C01841B950BA60BB70B843F914077
:10053000A105B10508F470CF61E08AE00E94C70010
:10054000D0920E01C0920D019ECF892809F46ECF82
:0E05500010920E0110920D0196CFF894FFCF7D
:107E0000112484B714BE81FFF0D085E080938100F7
:107E100082E08093C00088E18093C10086E0809377
:107E2000C20080E18093C4008EE0C9D0259A86E02C
:107E300020E33CEF91E0309385002093840096BBD3
:107E4000B09BFECF1D9AA8958150A9F7CC24DD24C4
:107E500088248394B5E0AB2EA1E19A2EF3E0BF2EE7
:107E6000A2D0813461F49FD0082FAFD0023811F036
:107E7000013811F484E001C083E08DD089C08234E0
:107E800011F484E103C0853419F485E0A6D080C0E4
:107E9000853579F488D0E82EFF2485D0082F10E0AE
:107EA000102F00270E291F29000F111F8ED06801E7
:107EB0006FC0863521F484E090D080E0DECF843638
:107EC00009F040C070D06FD0082F6DD080E0C81688
:107ED00080E7D80618F4F601B7BEE895C0E0D1E017
:107EE00062D089930C17E1F7F0E0CF16F0E7DF06D8
:107EF00018F0F601B7BEE89568D007B600FCFDCFD4
:107F0000A601A0E0B1E02C9130E011968C91119780
:107F100090E0982F8827822B932B1296FA010C0160
:107F200087BEE89511244E5F5F4FF1E0A038BF0790
:107F300051F7F601A7BEE89507B600FCFDCF97BE46
:107F4000E89526C08437B1F42ED02DD0F82E2BD052
:107F50003CD0F601EF2C8F010F5F1F4F84911BD097
:107F6000EA94F801C1F70894C11CD11CFA94CF0C13
:107F7000D11C0EC0853739F428D08EE10CD085E9AC
:107F80000AD08FE07ACF813511F488E018D01DD067
:107F900080E101D065CF982F8091C00085FFFCCF94
:107FA0009093C60008958091C00087FFFCCF809118
:107FB000C00084FD01C0A8958091C6000895E0E648
:107FC000F0E098E1908380830895EDDF803219F02E
:107FD00088E0F5DFFFCF84E1DECF1F93182FE3DFCA
:107FE0001150E9F7F2DF1F91089580E0E8DFEE27F6
:047FF000FF270994CA
:027FFE00040479
:00000001FF
